:4000000080673030303030307e3030307e3030307e3030307e3030307e3030307d0ce37e7e3030307e3030307d039f7e7d03a07e7e3030307e3030307e3030307e303030fa
:400040007e3030307e3030307e3030307e3030307e3030307e3030307e3030307e3030307d082e7e7e303030711062fa0062e38770ef50202850402850602841fefb508097
:400080004e55f80055f900711062e00270ef62e338627105627505627905627d0562d10750004e62d30762d00062d50062d40071c07c033d62d0005003573b0828532918c3
:4000c000750900284b5129800475090062e300082860d574a04b1875090008285329187509000828a01c53281875090008283f294729ffb0065dd57460d5187a28bfeb8f2a
:40010000c9187509000828532850003f294729ffb0085dd57460d550007a28bfef188faa18711070ef62e000711062e00043e78070ef62e2007c09eb8fff50107f30303053
:40014000303030303030303030303030303030303030303030303030303030303030303030303030303030303030303030303030303030303030303030303030303030307f
:4001800030303030303030303030303030303030303030303030303030303030303030304f46460d0a004f4e0d0a0021446f776e210021557021002c004932433a007374ad
:4001c000617274002f002d002e002b0029002a006028660063056500e600e700d600b001b100b200b333b433b520b600b855b900ba10bb33bc33bd00be00c000c100c2209b
:40020000c333c433c500c600c855c900ca30cb33cc33cd00ce006c006d006e006f00ff2c052dc12e40281d29012a4561006900600062006733683363006600d100d300d0b0
:4002400000d200e1b0e200df19de01dd00e700ff71106200006201ff70ef6203ff620200711062020062030070ef62010071106204a06205ff70ef6207ff62060071106228
:40028000060062070070ef62050071106208256209de70ef620bca620a307110620a04620b0470ef6209047110620c00620d0070ef620f00620e007110620e00620f0070de
:4002c000ef620d00711062100062110070ef621300621200711062120062130070ef621100711062140062150070ef621700621600711062160062170070ef62150071102f
:4003000062180062190070ef621b00621a007110621a00621b0070ef6219007110621c00621d0070ef621f00621e007110621e00621f0070ef621d0070ef7f0f047c03442a
:400340007c02507f1070ef500067500157c47c035f5001675002571f7c035f70ef207f380210084f56fc00d00456fc01182070ef62e30010082839ffa01f4f48fc01a00300
:40038000711054fd18207509001008284f59fd610018207509008fd738fc703f71c07f7e7d0b5108105dd30858015d2f082108b00418805e1821e0a0122c00492e002120aa
:4003c000a050412ffe432f0180485d2e470001b041390db0142e000162d300703f7180560b00703f7100802a3920c02662d3003c010fc011703f7180560b00703f71002e87
:400400000010800e703f7180540b703f7100755a011860d320187e43e10443e1087f41e1fb41e1f77f71102101a00743281070ef7f4128ef70ef7f2901602b602f912a7f4f
:40044000412bfe412ffe7f60297f5d2b7f5d2e7f5d2f7f210171103901a0064128ef800443281070ef7f082101a00643e108800441e1f7182102a00643e104800441e1fb06
:400480007f303132333435363738394142434445460867676767210fffe7900f18210fffe090087f4b9fea5b9fe77f492b10affc60297f492f08affc5d2e7f5d2f08210827
:4004c000b00418800b5d2e4b1821a0b0034b7f50007f5d2f21e8082108b0071829014b80071821e04b5d2e7f70bf60d35200a0069fb9758ff8703f71c07f70bf62d3074fe4
:4005000052fba01a7bfb52fc59fd60d35200492b10affc60294f62d30777fd8fe4703f71c07f4f3dfa00b0063dfb00a01d1052fc59fd28492b10affc60292007fd010ffc97
:400540000017fb011ffa008fdb703f71c07f081028a00b9f56201875dff5748ff238fe7f500d9f47500a9f437f62d000550b0062d00055010026000062d000554a007f628b
:40058000d000510021017f62d000510021f026000f7f62d00051017f70bf62d000500b024a5c62d3005200b0041080333920b01175764a52003c4a0fbff310560000801fdf
:4005c0001075764a3c4a0faff35200a0123920bff1560000764a3c4a0fb004554a0f20103d0000b00b2057005000703f71c07f205000703f71c07f62d000500b024a5c50c3
:40060000007f7f088008085ddd21fe60dd43de01187f085ddd21fe60dd187f62d00026027f62d00026047f43d6027f43d6017f41defe7f41d6fe7f41d6fd7f62d0004f5124
:4006400004470480bffa2e048052fd642901530360d855020052f953021052fa0852fb0852fc08930638fd20510348f901b00a49d701b005912e80039093703f71c07f6295
:40068000d0004f5104470480bffa2e048052fd64550200530360d852f953021077fa52fa0852fb0852fc08930038fd20510348f901b00a49d701bfc190ea8003904f703f74
:4006c00071c07f62d0004f5104470480bffa2e048052fd64550200530360d852f9530210500077fad002740852fa0852fb0852fc0892e338fc20510348f901b00a49d701ae
:40070000bf7790a080039005703f71c07f62d00060d853035dd9210fa01162d90249d704b00562d7047f62d7007f510390767f62d000085502005104470480bffa18647943
:40074000c003290160d8530349d904a01c62d90262d7005dd749d701affa49d702b00755020150017f50007f50007f62d000085502005104470480bffa1841defe49d70149
:40078000b0206479c003290160d8530362d9015dd749d701affa49d702b00755020150017f50007f62d00060d8530362d9017f62d00060d841defe5dd949d904a019550299
:4007c0000062d7045dd749d701affa49d702b0075502ff50017f500053027f62d0002602fe49d701bff649d702b0042e02017f62d00041defe49d904a028550200085dd717
:4008000049d708a00462d70049d701affc1821ffa00a5dd862d7105502017f5dd85502007f5502ff7f49d904a00462d7007f08105dd30849d708a01849d901b02f49d702fa
:40084000b01e470301b02e80a71860d320187e2e0480470301b02d809d1860d320187e62d70026047f1860d320187e26047f1860d320187e2e04802604fb62d7001860d379
:4008800020187e470204b0147a05c04f3c0500a00380062e020480042602fb2e0410510660d358075dd8703f71805400703f71007607470204b00a62d7101860d320187e5c
:4008c0002602fb2604f82e04012e0404260203a00a26047f1860d320187e62d70026047f1860d320187e62d7101860d320187e2604bf2e048049d702b04c500408510860d0
:40090000d35809703f71805200703f710060d87a0ac00e760980011860d71860d320187e26048f2e04402e0410260203a00b1826047f1860d320187e1862d70026047f1880
:4009400060d320187e760a7a09d0037a0862d70026047f26048f2e04402e04201860d320187e26047f1860d320187e104f79085dde0841defe62d0002602fb52fc5306529e
:40098000fd530752fb53053901a008c00626048f80092e020426048f8001182101a00443de011820703f71c07f62d000104f79085dde0841defe52fc530852fd530952fb39
:4009c000530a7a0a2604f0182101a00443de011820703f71c07f7f62d00051047f62d0002604f87f62d00026048f7f710143e020107c0569201050017c0466201050007c91
:400a00000437204308011050010850be5c187c054e7c06027c061b7c06062062d000554c0081231050000850080850000850320862d000514c087c067f38fb2062d00055b9
:400a40004b00107c09d762d000205329472940b02862d000514b62d0005328552900010162d000534b62d0005064122850003180531d50801a1ddfcb107c09e42010500063
:400a80000850080850000850420862d000514c087c063b38fb2062d000554b00107c09d762d000205329472904b02862d000514b62d0005328552900010162d000534b6270
:400ac000d0005064122850003180531d50801a1ddfcb107c09dd20107c044a62d000205329472910aff21050010850b95c187c054e20500008500a0862d000514c62d0002b
:400b00005328500008512808500008502a087c0d2b38fa10500008502a5c187c04e8201050010850b75c187c054e201050000850425c187c04e87c05602062d00055420050
:400b400062d000764c62d0003c4c0aced78ecd8fff71c0085dd0085dd3085dd4085dd50862d000512908512808512708512608512508512408512308512208512108512005
:400b800008511f08511e08511d08511c08511b08104f3803107c04b362d0002054001052007c04ab20520054025601005202114462d000531c520131801980c0312a1ca0f2
:400bc0001e3d0100b0063d0255a00380214308011050010850b25c187c054e2080104108fe1050010850ab5c187c054e2038fd2062d00018531b18531c18531d18531e1896
:400c0000531f1853201853211853221853231853241853251853261853271853281853291860d51860d41860d31860d0187e71c0085dd0085dd3085dd4085dd50862d0009a
:400c4000512908512808512708512608512508512408512308512208512108512008511f08511e08511d08511c08511b085d0862d0005329472904a01843080162d000552d
:400c800032411050010850a65c187c054e2080164108fe62d0005532421050010850a05c187c054e2062d00018531b18531c18531d18531e18531f185320185321185322ed
:400cc0001853231853241853251853261853271853281853291860d51860d41860d31860d0187e7d0c2e7e104f7c0cf220703f71c07f5dd00862d0005000531c531d551ba8
:400d00001066fc6cfb6b1c6b1d511c1bfa511d1bf9c009531d52fa1c1c77fc7a1bbfe3511c54fa511d54f91860d07f104f380952fa540352f954023df900b02f3dfa00b043
:400d40002a62d00052fc532852fb60d550303f2852fc0101532852fb090060d550003f2852fc532852fb5329819752fa110052f931801980d0293df700b0243df80ab01f2d
:400d800056060162d00052037353285202735329512801015403512909005402800456060052fc540152fb540062d00052f70852f8085202085203087c0ce738fe18532889
:400dc00018532951285408512954075009130852073180531d50801a1dc02862d0005201532852005329512801015401512909005400520801305327512960d551273f28d0
:400e0000802662d0005201532852005329512801015401512909005400520801575327512960d551273f2852f70852f80852020852030862d0007c0ce718540318540238cb
:400e4000fe3d0200bf643d0300bf5f3d0600a02062d0005201532852005329512801015401512909005400512960d5502d3f2862d0005201532852005329512801ff54010d
:400e8000512909ff5400512960d550003f2852fc540552fb5404805462d00052055328520460d43e2854065205532852045329512801015405512909005404520153265217
:400ec0000060d43e265327512960d551273f285201532852005329512801ff5401512909ff5400512960d552063f285205130152041b00cfa462d00052fc532852fb532991
:400f000038f7207f002a0020004b03000000ff003030303030303030303030303030303030303030303030303030303030303030303030303030303030303030303030304c
:400f40003030303030303030303030303030303030303030303030303030303030303030303030303030303030303030303030303030303030303030303030303030303071
:400f80003030303030303030303030303030303030303030303030303030303030303030303030303030303030303030303030303030303030303030303030303030303031
:400fc00030303030303030303030303030303030303030303030303030303030303030303030303030303030303030303030303030303030303030303030303030303030f1
:4010000030303030303030303030303030303030303030303030303030303030303030303030303030303030303030303030303030303030303030303030303030303030b0
:020000040010ea
:020000040020da
:02000000e36ead
:00000001ff
