:4000000080673030303030307e3030307e3030307e3030307e3030307e3030307d0ca67e7e3030307e3030307d03987e7d03997e7e3030307e3030307e3030307e30303045
:400040007e3030307e3030307e3030307e3030307e3030307e3030307e3030307e3030307d08277e7e303030711062fa0062e38770ef50202850402850602841fefb50809e
:400080004e55f80055f900711062e00270ef62e338627105627505627905627d0562d10750004e62d30762d00062d50062d40071c07c033662d00050035734082853a91851
:4000c000750900284b51a9800475090062e300082860d574a04b18750900082853a9187509000828a01c53a81875090008283fa947a9ffb0065dd57460d5187aa8bfeb8f2a
:40010000c918750900082853a850003fa947a9ffb0085dd57460d550007aa8bfef188faa18711070ef62e000711062e00043e78070ef62e2007c09e48fff50107f3030305a
:40014000303030303030303030303030303030303030303030303030303030303030303030303030303030303030303030303030303030303030303030303030303030307f
:4001800030303030303030303030303030303030303030303030303030303030303030304f46460d0a004f4e0d0a0021446f776e210021557021007374617274002f002d2e
:4001c000002e002b0029002a006028660063056500e600e700d600b001b100b200b333b433b520b600b855b900ba10bb33bc33bd00be00c000c100c220c333c433c500c6c6
:4002000000c855c900ca30cb33cc33cd00ce006c006d006e006f00ff2c052dc12e40281d29012a4561006900600062006733683363006600d100d300d000d200e1b0e200e3
:40024000df19de01dd00e700ff71106200006201ff70ef6203ff620200711062020062030070ef62010071106204a06205ff70ef6207ff620600711062060062070070ef9f
:4002800062050071106208256209de70ef620bca620a307110620a04620b0470ef6209047110620c00620d0070ef620f00620e007110620e00620f0070ef620d007110626b
:4002c000100062110070ef621300621200711062120062130070ef621100711062140062150070ef621700621600711062160062170070ef6215007110621800621900700b
:40030000ef621b00621a007110621a00621b0070ef6219007110621c00621d0070ef621f00621e007110621e00621f0070ef621d0070ef7f0caa7c033d7c02497f1070ef3e
:40034000500067500157bd7c0358500167500257187c035870ef207f380210084f56fc00d00456fc01182070ef62e30010082839ffa01f4f48fc01a003711054fd18207559
:4003800009001008284f59fd610018207509008fd738fc703f71c07f7e7d0b2008105dd30858015d2f082108b00418805e1821e0a0122c00492e002120a050412ffe432f8a
:4003c0000180485d2e470001b041390db0142e000162d300703f7180568b00703f7100802a3920c02662d3003c010fc011703f7180568b00703f71002e0010800e703f7199
:4004000080548b703f7100755a011860d320187e43e10443e1087f41e1fb41e1f77f71102101a00743281070ef7f4128ef70ef7f2901602b602f912a7f412bfe412ffe7f36
:4004400060297f5d2b7f5d2e7f5d2f7f210171103901a0064128ef800443281070ef7f082101a00643e108800441e1f7182102a00643e104800441e1fb7f303132333435af
:40048000363738394142434445460867676767210fffe7900f18210fffe090087f4b9fea5b9fe77f492b10affc60297f492f08affc5d2e7f5d2f082108b00418800b5d2ef3
:4004c0004b1821a0b0034b7f50007f5d2f21e8082108b0071829014b80071821e04b5d2e7f70bf60d35200a0069fb9758ff8703f71c07f70bf62d3074f52fba01a7bfb52f7
:40050000fc59fd60d35200492b10affc60294f62d30777fd8fe4703f71c07f4f3dfa00b0063dfb00a01d1052fc59fd28492b10affc60292007fd010ffc0017fb011ffa003a
:400540008fdb703f71c07f081028a00b9f56201875dff5748ff238fe7f500d9f47500a9f437f62d000558b0062d00055010026000062d00055ac007f62d000510021017f13
:4005800062d000510021f026000f7f62d00051017f70bf62d000508b02ac5c62d3005200b0041080333920b0117576ac52003cac0fbff310560000801f107576ac3cac0f5d
:4005c000aff35200a0123920bff156000076ac3cac0fb00455ac0f20103d0000b00b2057005000703f71c07f205000703f71c07f62d000508b02ac5c50007f7f08800808ff
:400600005ddd21fe60dd43de01187f085ddd21fe60dd187f62d00026027f62d00026047f43d6027f43d6017f41defe7f41d6fe7f41d6fd7f62d0004f5104470480bffa2e04
:40064000048052fd642901530360d855020052f953021052fa0852fb0852fc08930638fd20510348f901b00a49d701b005912e80039093703f71c07f62d0004f510447048c
:4006800080bffa2e048052fd64550200530360d852f953021077fa52fa0852fb0852fc08930038fd20510348f901b00a49d701bfc190ea8003904f703f71c07f62d0004f02
:4006c0005104470480bffa2e048052fd64550200530360d852f9530210500077fad002740852fa0852fb0852fc0892e338fc20510348f901b00a49d701bf7790a080039066
:4007000005703f71c07f62d00060d853035dd9210fa01162d90249d704b00562d7047f62d7007f510390767f62d000085502005104470480bffa186479c003290160d85344
:400740000349d904a01c62d90262d7005dd749d701affa49d702b00755020150017f50007f50007f62d000085502005104470480bffa1841defe49d701b0206479c0032928
:400780000160d8530362d9015dd749d701affa49d702b00755020150017f50007f62d00060d8530362d9017f62d00060d841defe5dd949d904a01955020062d7045dd74978
:4007c000d701affa49d702b0075502ff50017f500053027f62d0002602fe49d701bff649d702b0042e02017f62d00041defe49d904a028550200085dd749d708a00462d7cc
:400800000049d701affc1821ffa00a5dd862d7105502017f5dd85502007f5502ff7f49d904a00462d7007f08105dd30849d708a01849d901b02f49d702b01e470301b02e08
:4008400080a71860d320187e2e0480470301b02d809d1860d320187e62d70026047f1860d320187e26047f1860d320187e2e04802604fb62d7001860d320187e470204b0bd
:40088000147a05c04f3c0500a00380062e020480042602fb2e0410510660d358075dd8703f71805400703f71007607470204b00a62d7101860d320187e2602fb2604f82e9c
:4008c00004012e0404260203a00a26047f1860d320187e62d70026047f1860d320187e62d7101860d320187e2604bf2e048049d702b04c500408510860d35809703f71806f
:400900005200703f710060d87a0ac00e760980011860d71860d320187e26048f2e04402e0410260203a00b1826047f1860d320187e1862d70026047f1860d320187e760aeb
:400940007a09d0037a0862d70026047f26048f2e04402e04201860d320187e26047f1860d320187e104f79085dde0841defe62d0002602fb52fc530652fd530752fb53050b
:400980003901a008c00626048f80092e020426048f8001182101a00443de011820703f71c07f62d000104f79085dde0841defe52fc530852fd530952fb530a7a0a2604f03a
:4009c000182101a00443de011820703f71c07f7f62d00051047f62d0002604f87f62d00026048f7f710143e020107c0562201050017c045f201050007c04302043080110ea
:400a000050010850b75c187c05477c05fb7c06147c05ff2062d00055ad0080f910500008504008500008500b0862d00051ad087c067838fb2062d00055ab0055aa00107cbe
:400a400009d062d0002053a947a940b03762d00051ab0851aa62d00053a91853a8010162d00053ab62d00051a9090062d00053aa62d000506412a851a93180539d50801a0b
:400a80009ddfbc107c09dd2010500008504008500008504b0862d00051ad087c063438fb2062d00055ab0055aa00107c09d062d0002053a947a904b03762d00051ab0851ea
:400ac000aa62d00053a91853a8010162d00053ab62d00051a9090062d00053aa62d000506412a851a93180539d50801a9ddfbc107c09d620107c044362d0002053a947a97c
:400b000010aff210500008504b5c187c04e12062d00076ad62d0003cad02cf018ef78fff71c0085dd0085dd3085dd4085dd50862d00051a90851a80851a70851a60851a574
:400b40000851a40851a30851a20851a10851a008519f08519e08519d08519c08519b08104f3803107c04ac62d0002054001052007c04a4205200540256010052021144628c
:400b8000d000539c520131801980c0312a9ca01e3d0100b0063d0255a00380214308011050010850b25c187c05472080104108fe1050010850ab5c187c05472038fd206237
:400bc000d00018539b18539c18539d18539e18539f1853a01853a11853a21853a31853a41853a51853a61853a71853a81853a91860d51860d41860d31860d0187e71c00867
:400c00005dd0085dd3085dd4085dd50862d00051a90851a80851a70851a60851a50851a40851a30851a20851a10851a008519f08519e08519d08519c08519b085d0862d056
:400c40000053a947a904a0124308011050010850a65c187c05472080104108fe1050010850a05c187c05472062d00018539b18539c18539d18539e18539f1853a01853a1ce
:400c80001853a21853a31853a41853a51853a61853a71853a81853a91860d51860d41860d31860d0187e7d0bfd7e000b024142000d007e00aa02000000ad020000ff003046
:400cc00030303030303030303030303030303030303030303030303030303030303030303030303030303030303030303030303030303030303030303030303030303030f4
:400d000030303030303030303030303030303030303030303030303030303030303030303030303030303030303030303030303030303030303030303030303030303030b3
:400d40003030303030303030303030303030303030303030303030303030303030303030303030303030303030303030303030303030303030303030303030303030303073
:400d80003030303030303030303030303030303030303030303030303030303030303030303030303030303030303030303030303030303030303030303030303030303033
:020000040010ea
:020000040020da
:02000000e336e5
:00000001ff
